:03000000020655A0
:10002B0002038543757272656E742054656D702E74
:09003B003A004465672E204300E1
:10004400C000788500D8FDD00022C000C001792806
:100054007868D8FED9FADAF6D001D00022D2941208
:100064000044C29422A2E79283A2E69282A2E5927D
:1000740081A2E49280120061120044A2E39283A25E
:10008400E29282A2E19281A2E0928012006122D2E5
:1000940093020069C293020069C294C0027A2812D2
:1000A400004ED002743312009874331200987432E4
:1000B4001200987428120098740C1200987401129B
:1000C4000098C0027A0212004ED00222E493600625
:1000D400120093A380F62244404480020098C0E0BA
:1000E400E8C4540F4430120093E8540F4430120013
:0400F40093D0E022A3
:1000F800C0E0C0D0C000C001C002E4F538F539F551
:100108003AF53BF53C7A20E533A2E779047830E606
:1001180033F608D9FA79057838E636D4F608D9F9E5
:10012800DAE5D002D001D000D0D0D0E022C0E0C0C3
:10013800D0C000C001C002E4F538F539F53AF53B06
:10014800F53C7A20E533A2E779047830E633F608FF
:10015800D9FA79057838C0D0E6243320E70224D0CC
:1001680020E30224FDD0D033F608D9EADAD6D0024B
:10017800D001D000D0D0D0E022C0E0C0D0C000C0B4
:1001880001C0027A207905C3783CE613C0D030E775
:100198000224D030E30224FDF618D0D0D9EC79043B
:1001A8007833E613F618D9FADADBD002D001D0009A
:1001B800D0D0D0E022C0E0C0D0E5302534F530E51D
:1001C800313535F531E5323536F532E5333537F544
:1001D80033D0D0D0E022C0E0C0D0C3E5309534F5AC
:1001E80030E5319535F531E5329536F532E533951B
:1001F80037F533D0D0D0E022C0E0C0D0C3E5309589
:1002080034E5319535E5329536E53395379200D0AA
:10021800D0D0E022C0E0C0D0C3E5349530E53595B4
:1002280031E5369532E53795339200D0D0D0E022CB
:10023800C0E0C0D0C200C3E53495307014E53595F0
:1002480031700EE53695327008E53795337002D275
:1002580000D0D0D0E02212023820000302021C2273
:1002680012023820000302020022C0E0C0F0C0D011
:10027800C000C001C002C003E5308534F0A4F8A96D
:10028800F0E5318534F0A429F9E435F0FAE5308554
:1002980035F0A429F9E5F03AFAE433FBE532853480
:1002A800F0A42AFAE5F03BFBE5318535F0A42AFAFB
:1002B800E5F03BFBE5308536F0A42AFAE5F03BFB98
:1002C800E5338534F0A42BFBE5328535F0A42BFB10
:1002D800E5318536F0A42BFBE5308537F0A42BFB00
:1002E8008B338A3289318830D003D002D001D000D4
:1002F800D0D0D0F0D0E022C0E0C0D0C000C001C053
:1003080002C003C0047C20E4F8F9FAFBC3E53033EB
:10031800F530E53133F531E53233F532E53333F590
:1003280033E833F8E933F9EA33FAEB33FBC3E895FA
:1003380034E99535EA9536EB95374013E89534F866
:10034800E99535F9EA9536FAEB9537FB433001DC48
:10035800BBD004D003D002D001D000D0D0D0E0224E
:1003680075C80075CD7875CC9043C98075CB787504
:10037800CA90E4F560F561439B80D2CA22C2CFC01F
:10038800E0C0D00562C3E5639562B39284E562B4C8
:1003980064107562000568E4E568B43C05D20102A2
:1003A80003AAE53FB4000DE4756300300551753FBD
:1003B8000102045CE53FB4012875636420010D2047
:1003C800063DE4756800753F020203E9A203E49262
:1003D800E0A201C20175F00092F0C3B5F072020309
:1003E800BCE53FB4021C756314300464A207E492B0
:1003F800E0C3B5680AE4756800753F0302040A02A1
:10040800045CE53FB40316756364300443A208E452
:1004180092E0C3B4003EE4756800753F04E53FB45C
:100428000416756314300428A209E492E0C3B56881
:1004380023E4756800753F05E53FB405177563004B
:10044800A20AE492E0C3B4010BE4756800753F00AA
:10045800E53F7400D0D0D0E03275AC0075AD0075C2
:10046800B30075B40075B10075B200120368438E0D
:100478001043878075985253C4DF53890F438920EE
:10048800758DF7D28EC28C438E085389F04389014B
:1004980043B38253B47D53E8F043E80775F600434D
:1004A800F68143E10122C28CC28D758CFB758A33BB
:1004B800D28C308DFD221204AEDAFB22D20BD20C84
:1004C800D20DD20ED20FD295C280C281C282C2830F
:1004D800C29320953A7A321204BE209532D280D245
:1004E80081D282D283D293C293A295920FD293C221
:1004F80083A295920ED283C282A295920DD282C215
:1005080081A295920CD281C280A295920BD28022B0
:10051800C0E07401141200DBD0E0C000A83A120059
:10052800E2D000C000A8391200E2D000C0E0742E6A
:10053800120093D0E0C000A8381200E2D000C0E05A
:1005480074DF120093D0E0C0E07443120093D0E04F
:10055800C0E07401141200DBD0E0C0E07420120087
:1005680093D0E022C2EFD2EE30EFFDE5C2540FF88F
:10057800E5C3C4C0E0540FF9D0E054F048F822E5D0
:100588003A540F24301205E2E53954F0C4243012ED
:1005980005E2E539540F24301205E2742E1205E203
:1005A800E53854F0C424301205E2E538540F2430FD
:1005B8001205E274201205E27400A20692E02430CB
:1005C8001205E274201205E2E53F24301205E274B8
:1005D8000A1205E2740D1205E222C299F5993099C2
:1005E800FDC299300B0A300C0D300D18300E372231
:1005F800753F01020654E55F2401B405027401F554
:100608005F020654E55FB401050564020654B402AE
:10061800050565020654B403050566020654B404CC
:100628002B0567020654E55FB40106D5641E020671
:1006380054B40206D56515020654B40306D5660CF3
:10064800020654B40406D567030206542275817F56
:1006580012046112009D754601754700754A0175BF
:10066800482C754901753F00C205C20175641875AB
:10067800653C7566DC75672D755F01754B00754CBB
:1006880000754D00754E00C206C0E07401141200DA
:10069800DDD0E0C083C082C0E090002E1200D0D030
:1006A800E0D082D08353E8F043E80012056C883D1F
:1006B800893E53E8F043E80712056C8830893175A4
:1006C80032007533007534FF75359F753600753700
:1006D80000120272853D34853E3575360075370047
:1006E8001202FF85403485413585423685433712ED
:1006F80001BD85304085314185324285334353E819
:10070800F043E80412056C8830893175320075337E
:10071800007534FF75359F75360075370012027203
:10072800853D34853E357536007537001202FF85E4
:100738004F348550358551368552371201BD853085
:100748004F853150853251853352AA4A1204BE155D
:1007580046E546B4FF021547E546454760030208EB
:10076800B87534007535007536007537008540302A
:10077800854131854232854333E548F534F546E510
:1007880049F535F5471202FF7534A475356A753693
:10079800007537001201DE8530578531588532598A
:1007A80085335A7534007535007536007537008500
:1007B8004F30855031855132855233E548F534E55F
:1007C80049F5351202FF7534007535007536007528
:1007D8003700855734855835855936855A3712017B
:1007E800BD85305B85315C85325D85335EC20075C1
:1007F8003464753500753600753700856430753199
:1008080000753200753300120272855B34855C35E1
:10081800855D36855E3712025EA2009206C20075BB
:100828003464753500753600753700856630753166
:1008380000753200753300120272855B34855C35B1
:10084800855D36855E3712025EA2009208855B30B0
:10085800855C31855D32855E33C2007534A8753597
:100868006175360075370012025EA2009204C2005C
:1008780075348875351375360075370012025EA217
:100888000092031200F812051812058775400075CA
:100898004100754200754300754F00755000755151
:1008A80000755200755700755801755902755A033D
:1008B8001204C475300075310075320075330002BA
:0208C80006AD7B
:00000001FF
