:0300000002070DE7
:10002B000203BF43757272656E742054656D702E3A
:10003B003A004465672E20430054656D7020536F62
:10004B00616B3A200054696D6520536F616B3A20E8
:10005B000054696D65205265666C6F773A200054C9
:10006B00696D65205265666C6F773A2000204300FE
:03007B00207300EF
:10007E00C000788500D8FDD00022C000C0017928CC
:10008E007868D8FED9FADAF6D001D00022D29412CE
:10009E00007EC29422A2E79283A2E69282A2E59209
:1000AE0081A2E4928012009B12007EA2E39283A2B0
:1000BE00E29282A2E19281A2E0928012009B22D271
:1000CE00930200A3C2930200A3C294C0027A281224
:1000DE000088D00274331200D274331200D27432FC
:1000EE001200D274281200D2740C1200D2740112B3
:1000FE0000D2C0027A02120088D00222E493600677
:10010E001200CDA380F622444044800200D2C0E00B
:10011E00E8C4540F44301200CDE8540F443012009E
:04012E00CDD0E0222E
:10013200C0E0C0D0C000C001C002E4F538F539F516
:100142003AF53BF53C7A20E533A2E779047830E6CC
:1001520033F608D9FA79057838E636D4F608D9F9AB
:10016200DAE5D002D001D000D0D0D0E022C0E0C089
:10017200D0C000C001C002E4F538F539F53AF53BCC
:10018200F53C7A20E533A2E779047830E633F608C5
:10019200D9FA79057838C0D0E6243320E70224D092
:1001A20020E30224FDD0D033F608D9EADAD6D00211
:1001B200D001D000D0D0D0E022C0E0C0D0C000C07A
:1001C20001C0027A207905C3783CE613C0D030E73B
:1001D2000224D030E30224FDF618D0D0D9EC790401
:1001E2007833E613F618D9FADADBD002D001D00060
:1001F200D0D0D0E022C0E0C0D0E5302534F530E5E3
:10020200313535F531E5323536F532E5333537F509
:1002120033D0D0D0E022C0E0C0D0C3E5309534F571
:1002220030E5319535F531E5329536F532E53395E0
:1002320037F533D0D0D0E022C0E0C0D0C3E530954E
:1002420034E5319535E5329536E53395379200D070
:10025200D0D0E022C0E0C0D0C3E5349530E535957A
:1002620031E5369532E53795339200D0D0D0E02291
:10027200C0E0C0D0C200C3E53495307014E53595B6
:1002820031700EE53695327008E53795337002D23B
:1002920000D0D0D0E02212027220000302025622C5
:1002A20012027220000302023A22C0E0C0F0C0D063
:1002B200C000C001C002C003E5308534F0A4F8A933
:1002C200F0E5318534F0A429F9E435F0FAE530851A
:1002D20035F0A429F9E5F03AFAE433FBE532853446
:1002E200F0A42AFAE5F03BFBE5318535F0A42AFAC1
:1002F200E5F03BFBE5308536F0A42AFAE5F03BFB5E
:10030200E5338534F0A42BFBE5328535F0A42BFBD5
:10031200E5318536F0A42BFBE5308537F0A42BFBC5
:100322008B338A3289318830D003D002D001D00099
:10033200D0D0D0F0D0E022C0E0C0D0C000C001C018
:1003420002C003C0047C20E4F8F9FAFBC3E53033B1
:10035200F530E53133F531E53233F532E53333F556
:1003620033E833F8E933F9EA33FAEB33FBC3E895C0
:1003720034E99535EA9536EB95374013E89534F82C
:10038200E99535F9EA9536FAEB9537FB433001DC0E
:10039200BBD004D003D002D001D000D0D0D0E02214
:1003A20075C80075CDD775CC7943C9A075CBD77503
:1003B200CA79E4F560F561439B80D2CA22C2CFC0FC
:1003C200E0C0D00562C3E5639562B39284E562B48E
:1003D200641275620005680569E4E568B43C05D2FB
:1003E200010203E6E53FB40010E47569007563009D
:1003F200300552753F010204A7200A4CE53FB401C3
:100402002875636475690030063BE4753F027569BF
:100412000002042BA203E492E0A201C20175F000E3
:1004220092F0C3B5F0780203FB200A72E53FB402F2
:100432001A756314200467E4E569C395654066751F
:100442003F037569000204A70204A0200A50E53F99
:10045200B40313756364756900200442300746E4EF
:10046200756900753F04200A35E53FB404137563CE
:100472001420042AE4E5699567402A753F057569E9
:1004820000200A1AE53FB4051C7563007569002057
:10049200040C300810753F007569000204A774004F
:1004A200F53F0204A7D0D0D0E03275AC0075AD00A4
:1004B20075B30075B40075B10075B2001203A243A2
:1004C2008E1043878075985253C4DF53890F438936
:1004D20020758DF7D28EC28C438E085389F04389E2
:1004E2000143B38253B47D53E8F043E80775F60045
:1004F20043F68143E10122C28CC28D758CFB758A61
:1005020033D28C308DFD221204F9DAFB22D20BD2C7
:100512000CD20DD20ED20FD295C293C280C281C22A
:1005220082C2832095377A1E120509D293D280D2D5
:1005320081D282D283C283A295920FD283C282A237
:1005420095920ED282C281A295920DD281C280A2D0
:1005520095920CD280C293A295920BD29322C0E0C4
:10056200740114120115D0E0C000A83A12011CD087
:1005720000C000A83912011CD000C0E0742E120085
:10058200CDD0E0C000A83812011CD000C0E074DF5A
:100592001200CDD0E0C0E074431200CDD0E0C0E044
:1005A200740114120115D0E0C0E074201200CDD005
:1005B200E022C2EFD2EE30EFFDE5C2540FF8E5C300
:1005C200C4C0E0540FF9D0E054F048F822E53A54A0
:1005D2000F2430120687E53954F0C42430120687FE
:1005E200E539540F2430120687742E120687E53837
:1005F20054F0C42430120687E538540F2430120612
:100602008774201206877400A20692E02430120634
:10061200877420120687E53F243012068774201261
:1006220006877400A20992E0243012068774201211
:100632000687E56924301206877420120687E5686A
:10064200243012068774201206877400A28492E076
:1006520024301206877420120687742012068774CB
:1006620000A20A92E02430120687742012068774D0
:1006720000A20592E02430120687740A12068774DB
:100682000D12068722C299F5993099FDC299300B55
:100692000A300C20300D2B300E4A22C3A205E49200
:1006A200E0F4A2E09205E4C3A20A92E0F4A2E0928E
:1006B2000A02070CE55F2401B405027401F55F022A
:1006C200070CE55FB40105056402070CB4020505D9
:1006D2006502070CB40305056602070CB4042B057A
:1006E2006702070CE55FB40106D5641E02070CB46D
:1006F2000206D5651502070CB40306D5660C02077F
:100702000CB40406D5670302070C2275817F12041C
:10071200AC1200D71203A2D2AF754601754700751D
:100722004A0175482C754901753F00C205C201D2C4
:100732000A75641C75650575661E756705755F012A
:10074200754B00754C00754D00754E00C206C20710
:10075200C209C203C204756800756900756200753A
:100762006300C0E0740114120117D0E0C083C0829C
:10077200C0E090002E12010AD0E0D082D08353E86C
:10078200F043E8001205B4883D893E53E8F043E89F
:10079200071205B48830893175320075330075341B
:1007A200FF75359F7536007537001202AC853D34F2
:1007B200853E35753600753700120339854034851C
:1007C20041358542368543371201F7853040853100
:1007D2004185324285334353E8F043E8041205B4BD
:1007E200883089317532007533007534FF75359F55
:1007F2007536007537001202AC853D34853E35757D
:100802003600753700120339854F348550358551CE
:10081200368552371201F785304F85315085325176
:10082200853352AA4A1205091546E546B4FF021558
:1008320047E546454760030209A075340075350057
:1008420075360075370085403085413185423285E5
:100852004333E548F534F546E549F535F5471203E6
:10086200397534A475356A75360075370012021869
:1008720085305785315885325985335A753400751C
:100882003500753600753700854F308550318551FA
:1008920032855233E548F534E549F53512033975A9
:1008A2003400753500753600753700855734855824
:1008B20035855936855A371201F785305B85315CAB
:1008C20085325D85335EC2007534647535007536D8
:1008D200007537008564307531007532007533005C
:1008E2001202AC855B34855C35855D36855E3712D8
:1008F20002A2A2009206C2007534647535007536F4
:100902000075370085663075310075320075330029
:100912001202AC855B34855C35855D36855E3712A7
:1009220002A2A2009207855B30855C31855D32852B
:100932005E33C2007534A8753561753600753700AF
:10094200120298A2009204C200753488753513759C
:100952003600753700120298A2009203C200753465
:10096200B875350B7536007537001202A2A20092D7
:10097200081201321205601205CF75400075410060
:10098200754200754300754F007550007551007532
:100992005200755700755801755902755A031205B0
:1009A2000F75300075310075320075330002078013
:00000001FF
