:030000000206886D
:10002B0002038543757272656E742054656D702E74
:09003B003A004465672E204300E1
:10004400C000788500D8FDD00022C000C001792806
:100054007868D8FED9FADAF6D001D00022D2941208
:100064000044C29422A2E79283A2E69282A2E5927D
:1000740081A2E49280120061120044A2E39283A25E
:10008400E29282A2E19281A2E0928012006122D2E5
:1000940093020069C293020069C294C0027A2812D2
:1000A400004ED002743312009874331200987432E4
:1000B4001200987428120098740C1200987401129B
:1000C4000098C0027A0212004ED00222E493600625
:1000D400120093A380F62244404480020098C0E0BA
:1000E400E8C4540F4430120093E8540F4430120013
:0400F40093D0E022A3
:1000F800C0E0C0D0C000C001C002E4F538F539F551
:100108003AF53BF53C7A20E533A2E779047830E606
:1001180033F608D9FA79057838E636D4F608D9F9E5
:10012800DAE5D002D001D000D0D0D0E022C0E0C0C3
:10013800D0C000C001C002E4F538F539F53AF53B06
:10014800F53C7A20E533A2E779047830E633F608FF
:10015800D9FA79057838C0D0E6243320E70224D0CC
:1001680020E30224FDD0D033F608D9EADAD6D0024B
:10017800D001D000D0D0D0E022C0E0C0D0C000C0B4
:1001880001C0027A207905C3783CE613C0D030E775
:100198000224D030E30224FDF618D0D0D9EC79043B
:1001A8007833E613F618D9FADADBD002D001D0009A
:1001B800D0D0D0E022C0E0C0D0E5302534F530E51D
:1001C800313535F531E5323536F532E5333537F544
:1001D80033D0D0D0E022C0E0C0D0C3E5309534F5AC
:1001E80030E5319535F531E5329536F532E533951B
:1001F80037F533D0D0D0E022C0E0C0D0C3E5309589
:1002080034E5319535E5329536E53395379200D0AA
:10021800D0D0E022C0E0C0D0C3E5349530E53595B4
:1002280031E5369532E53795339200D0D0D0E022CB
:10023800C0E0C0D0C200C3E53495307014E53595F0
:1002480031700EE53695327008E53795337002D275
:1002580000D0D0D0E02212023820000302021C2273
:1002680012023820000302020022C0E0C0F0C0D011
:10027800C000C001C002C003E5308534F0A4F8A96D
:10028800F0E5318534F0A429F9E435F0FAE5308554
:1002980035F0A429F9E5F03AFAE433FBE532853480
:1002A800F0A42AFAE5F03BFBE5318535F0A42AFAFB
:1002B800E5F03BFBE5308536F0A42AFAE5F03BFB98
:1002C800E5338534F0A42BFBE5328535F0A42BFB10
:1002D800E5318536F0A42BFBE5308537F0A42BFB00
:1002E8008B338A3289318830D003D002D001D000D4
:1002F800D0D0D0F0D0E022C0E0C0D0C000C001C053
:1003080002C003C0047C20E4F8F9FAFBC3E53033EB
:10031800F530E53133F531E53233F532E53333F590
:1003280033E833F8E933F9EA33FAEB33FBC3E895FA
:1003380034E99535EA9536EB95374013E89534F866
:10034800E99535F9EA9536FAEB9537FB433001DC48
:10035800BBD004D003D002D001D000D0D0D0E0224E
:1003680075C80075CDD775CC7943C9A075CBD7753D
:10037800CA79E4F560F561439B80D2CA22C2CFC036
:10038800E0C0D00562C3E5639562B39284E562B4C8
:10039800641275620005680569E4E568B43C05D235
:1003A800010203ACE53FB40010E475690075630011
:1003B80030054C753F01020458E53FB401287563C8
:1003C80064756900300638E4753F027569000203F8
:1003D800EEA203E492E0A201C20175F00092F0C31C
:1003E800B5F0690203C1E53FB40217756314200430
:1003F8005BE4E569C395654057753F03756900027D
:100408000458E53FB4031375636475690020043C20
:1004180030073DE4756900753F04E53FB404137582
:100428006314200427E4E56995674024753F057542
:100438006900E53FB4051975630075690020040C6F
:1004480030080D753F007569000204587400F53FC7
:10045800D0D0D0E03275AC0075AD0075B30075B47E
:100468000075B10075B200120368438E104387808F
:1004780075985253C4DF53890F438920758DF7D27D
:100488008EC28C438E085389F043890143B382534B
:10049800B47D53E8F043E80775F60043F68143E17D
:1004A8000122C28CC28D758CFB758A33D28C308D3B
:1004B800FD221204AADAFB22D20AD20BD20CD20DE8
:1004C800D20ED295C293C280C281C282C2832095C5
:1004D8003A7A321204BA209532D293D280D281D29B
:1004E80082D283C283A295920ED283C282A29592AF
:1004F8000DD282C281A295920CD281C280A295921D
:100508000BD280C293A295920AD29322C0E07401C2
:10051800141200DBD0E0C000A83A1200E2D000C0FC
:1005280000A8391200E2D000C0E0742E120093D067
:10053800E0C000A8381200E2D000C0E074DF12006A
:1005480093D0E0C0E07443120093D0E0C0E074019F
:10055800141200DBD0E0C0E07420120093D0E02237
:10056800C2EFD2EE30EFFDE5C2540FF8E5C3C4C0C8
:10057800E0540FF9D0E054F048F822E53A540F243B
:1005880030120616E53954F0C42430120616E5393F
:10059800540F2430120616742E120616E53854F03D
:1005A800C42430120616E538540F24301206167487
:1005B800201206167400A20692E024301206167461
:1005C80020120616E53F243012061674201206166D
:1005D8007400A20992E0243012061674201206163E
:1005E800E56924301206167420120616E5682430D0
:1005F80012061674201206167400A28492E02430A3
:10060800120616740A120616740D12061622C299DC
:10061800F5993099FDC299300A0A300B0C300C1745
:10062800300D3622D205020687E55F2401B40502A3
:100638007401F55F020687E55FB4010505640206EB
:1006480087B402050565020687B403050566020638
:1006580087B4042B0567020687E55FB40106D564F5
:100668001E020687B40206D56515020687B403067E
:10067800D5660C020687B40406D5670302068722EE
:1006880075817F12045D12009D120368D2AF754612
:1006980001754700754A0175482C754901753F0079
:1006A800C205C20175641C75650575661E7567050A
:1006B800755F01754B00754C00754D00754E00C295
:1006C80006C207C209C203C20475680075690075CD
:1006D8006200756300C0E07401141200DDD0E0C050
:1006E80083C082C0E090002E1200D0D0E0D082D02B
:1006F8008353E8F043E800120568883D893E53E8D3
:10070800F043E8071205688830893175320075337F
:10071800007534FF75359F75360075370012027203
:10072800853D34853E357536007537001202FF85E4
:1007380040348541358542368543371201BD8530C1
:100748004085314185324285334353E8F043E8041C
:10075800120568883089317532007533007534FFA9
:1007680075359F753600753700120272853D3485E0
:100778003E357536007537001202FF854F348550B7
:10078800358551368552371201BD85304F85315038
:10079800853251853352AA4A1204BA1546E546B441
:1007A800FF021547E54645476003020919753400FD
:1007B80075350075360075370085403085413185BF
:1007C8004232854333E548F534F546E549F535F5D4
:1007D800471202FF7534A475356A753600753700FF
:1007E8001201DE85305785315885325985335A755F
:1007F8003400753500753600753700854F308550E3
:1008080031855132855233E548F534E549F53512DD
:1008180002FF753400753500753600753700855749
:1008280034855835855936855A371201BD85305B70
:1008380085315C85325D85335EC2007534647535FB
:1008480000753600753700856430753100753200E3
:10085800753300120272855B34855C35855D36859B
:100868005E37120268A2009206C2007534647535BC
:1008780000753600753700856630753100753200B1
:10088800753300120272855B34855C35855D36856B
:100898005E37120268A2009207855B30855C31855D
:1008A8005D32855E33C2007534A8753561753600D2
:1008B80075370012025EA2009204C2007534887572
:1008C800351375360075370012025EA2009203C216
:1008D800007534B875350B75360075370012026827
:1008E800A20092081200F812051412058375400040
:1008F800754100754200754300754F0075500075CD
:100908005100755200755700755801755902755A8E
:10091800031204C07530007531007532007533005C
:030928000206F9CB
:00000001FF
