:030000000206599C
:10002B0002038543757272656E742054656D702E74
:09003B003A004465672E204300E1
:10004400C000788500D8FDD00022C000C001792806
:100054007868D8FED9FADAF6D001D00022D2941208
:100064000044C29422A2E79283A2E69282A2E5927D
:1000740081A2E49280120061120044A2E39283A25E
:10008400E29282A2E19281A2E0928012006122D2E5
:1000940093020069C293020069C294C0027A2812D2
:1000A400004ED002743312009874331200987432E4
:1000B4001200987428120098740C1200987401129B
:1000C4000098C0027A0212004ED00222E493600625
:1000D400120093A380F62244404480020098C0E0BA
:1000E400E8C4540F4430120093E8540F4430120013
:0400F40093D0E022A3
:1000F800C0E0C0D0C000C001C002E4F538F539F551
:100108003AF53BF53C7A20E533A2E779047830E606
:1001180033F608D9FA79057838E636D4F608D9F9E5
:10012800DAE5D002D001D000D0D0D0E022C0E0C0C3
:10013800D0C000C001C002E4F538F539F53AF53B06
:10014800F53C7A20E533A2E779047830E633F608FF
:10015800D9FA79057838C0D0E6243320E70224D0CC
:1001680020E30224FDD0D033F608D9EADAD6D0024B
:10017800D001D000D0D0D0E022C0E0C0D0C000C0B4
:1001880001C0027A207905C3783CE613C0D030E775
:100198000224D030E30224FDF618D0D0D9EC79043B
:1001A8007833E613F618D9FADADBD002D001D0009A
:1001B800D0D0D0E022C0E0C0D0E5302534F530E51D
:1001C800313535F531E5323536F532E5333537F544
:1001D80033D0D0D0E022C0E0C0D0C3E5309534F5AC
:1001E80030E5319535F531E5329536F532E533951B
:1001F80037F533D0D0D0E022C0E0C0D0C3E5309589
:1002080034E5319535E5329536E53395379200D0AA
:10021800D0D0E022C0E0C0D0C3E5349530E53595B4
:1002280031E5369532E53795339200D0D0D0E022CB
:10023800C0E0C0D0C200C3E53495307014E53595F0
:1002480031700EE53695327008E53795337002D275
:1002580000D0D0D0E02212023820000302021C2273
:1002680012023820000302020022C0E0C0F0C0D011
:10027800C000C001C002C003E5308534F0A4F8A96D
:10028800F0E5318534F0A429F9E435F0FAE5308554
:1002980035F0A429F9E5F03AFAE433FBE532853480
:1002A800F0A42AFAE5F03BFBE5318535F0A42AFAFB
:1002B800E5F03BFBE5308536F0A42AFAE5F03BFB98
:1002C800E5338534F0A42BFBE5328535F0A42BFB10
:1002D800E5318536F0A42BFBE5308537F0A42BFB00
:1002E8008B338A3289318830D003D002D001D000D4
:1002F800D0D0D0F0D0E022C0E0C0D0C000C001C053
:1003080002C003C0047C20E4F8F9FAFBC3E53033EB
:10031800F530E53133F531E53233F532E53333F590
:1003280033E833F8E933F9EA33FAEB33FBC3E895FA
:1003380034E99535EA9536EB95374013E89534F866
:10034800E99535F9EA9536FAEB9537FB433001DC48
:10035800BBD004D003D002D001D000D0D0D0E0224E
:1003680075C80075CD7875CC9043C98075CB787504
:10037800CA90E4F560F561439B80D2CA22C2CFC01F
:10038800E0C0D00560E560702805610562C3E563DB
:100398009562B39284E562B464107562000568E4FE
:1003A800E568B46008D2010203B902047DE40203DF
:1003B800B9E560B4E805E561B40300E53FB4000FB2
:1003C800E4756300E504B40157753F0102047DE557
:1003D8003FB4012E756364200113A205E492E0C3C3
:1003E800B4003DE4756800753F0202040AA202E405
:1003F80092E0A201C20175F00092F0C3B5F072025A
:1004080003D7E53FB4021C756314300364A206E405
:1004180092E0C3B5680AE4756800753F0302042BCF
:1004280002047DE53FB40316756364300343A207F5
:10043800E492E0C3B4003EE4756800753F04E53F0C
:10044800B40416756314300328A208E492E0C3B517
:100458006823E4756800753F05E53FB405177563C3
:1004680000A209E492E0C3B4010BE4756800753F8B
:1004780000E53F7400D0D0D0E03275AC0075AD0017
:1004880075B30075B40075B10075B2001203684306
:100498008E1043878075985253C4DF53890F438960
:1004A80020758DF7D28EC28C438E085389F043890C
:1004B8000143B38253B47D53E8F043E80775F6006F
:1004C80043F68143E10122C28CC28D758CFB758A8B
:1004D80033D28C308DFD221204CFDAFB22D20AD21D
:1004E8000BD20CD20DD20ED295C280C281C282C26A
:1004F80083C29320953A7A321204DF209532D28053
:10050800D281D282D283D293C293A295920ED293F1
:10051800C283A295920DD283C282A295920CD282F6
:10052800C281A295920BD281C280A295920AD280F2
:1005380022C0E07401141200DBD0E0C000A83A1217
:1005480000E2D000C000A8391200E2D000C0E07478
:100558002E120093D0E0C000A8381200E2D000C0EC
:10056800E074DF120093D0E0C0E07443120093D02F
:10057800E0C0E07401141200DBD0E0C0E074201287
:100588000093D0E022C2EFD2EE30EFFDE5C2540F67
:10059800F8E5C3C4C0E0540FF9D0E054F048F8229D
:1005A800E53A540F24301205E7E53954F0C42430F5
:1005B8001205E7E539540F24301205E7742E1205A9
:1005C800E7E53854F0C424301205E7E538540F2421
:1005D800301205E7740A1205E7740D1205E722C206
:1005E80099F5993099FDC299300A0A300B0C300CF4
:1005F80017300D3622D204020658E55F2401B405EF
:10060800027401F55F020658E55FB401050564024E
:100618000658B402050565020658B40305056602C6
:100628000658B4042B0567020658E55FB40106D5E1
:10063800641E020658B40206D56515020658B403AE
:1006480006D5660C020658B40406D5670302065898
:100658002275817F12048212009D7546017547003C
:10066800754A0175482C754901753F00C204C201DD
:1006780075649675653C7566DC75672D755F0175E3
:100688004B00754C00754D00754E00C0E0740114A8
:100698001200DDD0E0C083C082C0E090002E1200BE
:1006A800D0D0E0D082D08353E8F043E80012058D23
:1006B800883D893E53E8F043E80712058D88308964
:1006C800317532007533007534FF75359F75360006
:1006D800753700120272853D34853E3575360075D2
:1006E80037001202FF8540348541358542368543FF
:1006F800371201BD8530408531418532428533430B
:1007080053E8F043E80412058D88308931753200CA
:100718007533007534FF75359F75360075370012CF
:100728000272853D34853E357536007537001202F4
:10073800FF854F348550358551368552371201BDB6
:1007480085304F853150853251853352AA4A12047B
:10075800DF1546E546B4FF021547E5464547600301
:100768000208AE753400753500753600753700859A
:100778004030854131854232854333E548F534F5CB
:1007880046E549F535F5471202FF7534A475356A13
:100798007536007537001201DE853057853158856A
:1007A800325985335A7534007535007536007537FA
:1007B80000854F30855031855132855233E548F5F3
:1007C80034E549F5351202FF753400753500753684
:1007D80000753700855734855835855936855A3719
:1007E8001201BD85305B85315C85325D85335E7570
:1007F8003464753500753600753700856430753199
:1008080000753200753300120272855B34855C35E1
:10081800855D36855E3712025E8500057534647520
:1008280035007536007537008566307531007532CC
:1008380000753300120272855B34855C35855D3640
:10084800855E3712025E850007855B30855C3185E1
:100858005D32855E337534A8753561753600753738
:100868000012025E850003753488753513753600ED
:1008780075370012025E8500021200F8120539125F
:1008880005A8754000754100754200754300754F15
:100898000075500075510075520075570075580164
:1008A800755902755A031204E5742E1205E775305E
:0D08B800007531007532007533000206AF87
:00000001FF
