:0300000002066293
:10002B0002038543757272656E742054656D702E74
:09003B003A004465672E204300E1
:10004400C000788500D8FDD00022C000C001792806
:100054007868D8FED9FADAF6D001D00022D2941208
:100064000044C29422A2E79283A2E69282A2E5927D
:1000740081A2E49280120061120044A2E39283A25E
:10008400E29282A2E19281A2E0928012006122D2E5
:1000940093020069C293020069C294C0027A2812D2
:1000A400004ED002743312009874331200987432E4
:1000B4001200987428120098740C1200987401129B
:1000C4000098C0027A0212004ED00222E493600625
:1000D400120093A380F62244404480020098C0E0BA
:1000E400E8C4540F4430120093E8540F4430120013
:0400F40093D0E022A3
:1000F800C0E0C0D0C000C001C002E4F538F539F551
:100108003AF53BF53C7A20E533A2E779047830E606
:1001180033F608D9FA79057838E636D4F608D9F9E5
:10012800DAE5D002D001D000D0D0D0E022C0E0C0C3
:10013800D0C000C001C002E4F538F539F53AF53B06
:10014800F53C7A20E533A2E779047830E633F608FF
:10015800D9FA79057838C0D0E6243320E70224D0CC
:1001680020E30224FDD0D033F608D9EADAD6D0024B
:10017800D001D000D0D0D0E022C0E0C0D0C000C0B4
:1001880001C0027A207905C3783CE613C0D030E775
:100198000224D030E30224FDF618D0D0D9EC79043B
:1001A8007833E613F618D9FADADBD002D001D0009A
:1001B800D0D0D0E022C0E0C0D0E5302534F530E51D
:1001C800313535F531E5323536F532E5333537F544
:1001D80033D0D0D0E022C0E0C0D0C3E5309534F5AC
:1001E80030E5319535F531E5329536F532E533951B
:1001F80037F533D0D0D0E022C0E0C0D0C3E5309589
:1002080034E5319535E5329536E53395379200D0AA
:10021800D0D0E022C0E0C0D0C3E5349530E53595B4
:1002280031E5369532E53795339200D0D0D0E022CB
:10023800C0E0C0D0C200C3E53495307014E53595F0
:1002480031700EE53695327008E53795337002D275
:1002580000D0D0D0E02212023820000302021C2273
:1002680012023820000302020022C0E0C0F0C0D011
:10027800C000C001C002C003E5308534F0A4F8A96D
:10028800F0E5318534F0A429F9E435F0FAE5308554
:1002980035F0A429F9E5F03AFAE433FBE532853480
:1002A800F0A42AFAE5F03BFBE5318535F0A42AFAFB
:1002B800E5F03BFBE5308536F0A42AFAE5F03BFB98
:1002C800E5338534F0A42BFBE5328535F0A42BFB10
:1002D800E5318536F0A42BFBE5308537F0A42BFB00
:1002E8008B338A3289318830D003D002D001D000D4
:1002F800D0D0D0F0D0E022C0E0C0D0C000C001C053
:1003080002C003C0047C20E4F8F9FAFBC3E53033EB
:10031800F530E53133F531E53233F532E53333F590
:1003280033E833F8E933F9EA33FAEB33FBC3E895FA
:1003380034E99535EA9536EB95374013E89534F866
:10034800E99535F9EA9536FAEB9537FB433001DC48
:10035800BBD004D003D002D001D000D0D0D0E0224E
:1003680075C80075CD7875CC9043C98075CB787504
:10037800CA90E4F560F561439B80D2CA22C2CFC01F
:10038800E0C0D00562C3E5639562B39284E562B4C8
:1003980064107562000568E4E568B43C05D20102A2
:1003A80003AAE53FB4000DE475630030054E753FC0
:1003B80001020459E53FB4012575636420063DE454
:1003C800756800753F020203E6A203E492E0A20109
:1003D800C20175F00092F0C3B5F0720203BCE53FAC
:1003E800B4021C756314300464A207E492E0C3B538
:1003F800680AE4756800753F03020407020459E5BA
:100408003FB40316756364300443A208E492E0C362
:10041800B4003EE4756800753F04E53FB404167502
:100428006314300428A209E492E0C3B56823E47594
:100438006800753F05E53FB40517756300A20AE437
:1004480092E0C3B4010BE4756800753F00E53F74A2
:1004580000D0D0D0E03275AC0075AD0075B3007532
:10046800B40075B10075B200120368438E1043875B
:100478008075985253C4DF53890F438920758DF7CF
:10048800D28EC28C438E085389F043890143B382CC
:1004980053B47D53E8F043E80775F60043F681430B
:1004A800E10122C28CC28D758CFB758A33D28C30E7
:1004B8008DFD221204ABDAFB22D20CD20DD20ED261
:1004C8000FD210D295C280C281C282C283C2932049
:1004D800953A7A321204BB209532D280D281D282E8
:1004E800D283D293C293A2959210D293C283A2953B
:1004F800920FD283C282A295920ED282C281A29515
:10050800920DD281C280A295920CD28022C0E07452
:1005180001141200DBD0E0C000A83A1200E2D000BB
:10052800C000A8391200E2D000C0E0742E12009377
:10053800D0E0C000A8381200E2D000C0E074DF129A
:100548000093D0E0C0E07443120093D0E0C0E074A0
:1005580001141200DBD0E0C0E07420120093D0E058
:1005680022C2EFD2EE30EFFDE5C2540FF8E5C3C466
:10057800C0E0540FF9D0E054F048F822E53A540F9F
:1005880024301205EFE53954F0C424301205EFE5A4
:1005980039540F24301205EF742E1205EFE5385444
:1005A800F0C424301205EFE538540F24301205EF5B
:1005B80074201205EF7400A20692E024301205EFB1
:1005C80074201205EFE53F24301205EF7420120560
:1005D800EF7400A20B92E024301205EF740A1205A2
:1005E800EF740D1205EF22C299F5993099FDC29961
:1005F800300C0A300D0D300E18300F3722753F01C0
:10060800020661E55F2401B405027401F55F020684
:1006180061E55FB401050564020661B4020505657C
:10062800020661B403050566020661B4042B05677A
:10063800020661E55FB40106D5641E020661B402D4
:1006480006D56515020661B40306D5660C02066177
:10065800B40406D567030206612275817F12045E21
:1006680012009D754601754700754A0175482C753D
:100678004901753F00C205C20175641875653C756E
:1006880066DC75672D755F01754B00754C00754DFF
:1006980000754E00C206C20BC0E07401141200DDE2
:1006A800D0E0C083C082C0E090002E1200D0D0E01D
:1006B800D082D08353E8F043E800120569883D8969
:1006C8003E53E8F043E807120569883089317532EE
:1006D800007533007534FF75359F75360075370022
:1006E800120272853D34853E357536007537001225
:1006F80002FF8540348541358542368543371201EE
:10070800BD85304085314185324285334353E8F019
:1007180043E8041205698830893175320075330061
:100728007534FF75359F753600753700120272856E
:100738003D34853E357536007537001202FF854F0A
:10074800348550358551368552371201BD85304F75
:10075800853150853251853352AA4A1204BB154659
:10076800E546B4FF021547E546454760030208C75A
:10077800753400753500753600753700854030854D
:100788004131854232854333E548F534F546E5493C
:10079800F535F5471202FF7534A475356A753600CC
:1007A8007537001201DE85305785315885325985F5
:1007B800335A753400753500753600753700854F26
:1007C80030855031855132855233E548F534E54955
:1007D800F5351202FF75340075350075360075372A
:1007E80000855734855835855936855A371201BDE5
:1007F80085305B85315C85325D85335EC20075343A
:1008080064753500753600753700856430753100BC
:10081800753200753300120272855B34855C35854C
:100828005D36855E3712025EA2009206C2007534FC
:10083800647535007536007537008566307531008A
:10084800753200753300120272855B34855C35851C
:100858005D36855E3712025EA2009208855B3085A0
:100868005C31855D32855E33C2007534A8753561AB
:1008780075360075370012025EA2009204C2007538
:10088800348875351375360075370012025EA2007C
:1008980092031200F812051512058475400075417F
:1008A80000754200754300754F0075500075510082
:1008B800755200755700755801755902755A03121B
:1008C80004C17530007531007532007533000206B9
:0108D800BC63
:00000001FF
