:03000000020906EC
:03000B000203A845
:10002B000203DB43757272656E742054656D702E1E
:10003B003A004465672E20430054656D7020536F62
:10004B00616B3A202020200054696D6520536F614D
:10005B006B3A202020200054656D70205265666C31
:10006B006F773A200054696D65205265666C6F7727
:09007B003A20002043002073002C
:10008400C000788500D8FDD00022C000C0017928C6
:100094007868D8FED9FADAF6D001D00022D29412C8
:1000A4000084C29422A2E79283A2E69282A2E592FD
:1000B40081A2E492801200A1120084A2E39283A29E
:1000C400E29282A2E19281A2E092801200A122D265
:1000D400930200A9C2930200A9C294C0027A281212
:1000E400008ED00274331200D874331200D87432E4
:1000F4001200D874281200D8740C1200D87401129B
:1001040000D8C0027A0212008ED00222E493600664
:100114001200D3A380F622444044800200D8C0E0F9
:10012400E8C4540F44301200D3E8540F4430120092
:04013400D3D0E02222
:10013800C0E0C0D0C000C001C002E4F538F539F510
:100148003AF53BF53C7A20E533A2E779047830E6C6
:1001580033F608D9FA79057838E636D4F608D9F9A5
:10016800DAE5D002D001D000D0D0D0E022C0E0C083
:10017800D0C000C001C002E4F538F539F53AF53BC6
:10018800F53C7A20E533A2E779047830E633F608BF
:10019800D9FA79057838C0D0E6243320E70224D08C
:1001A80020E30224FDD0D033F608D9EADAD6D0020B
:1001B800D001D000D0D0D0E022C0E0C0D0C000C074
:1001C80001C0027A207905C3783CE613C0D030E735
:1001D8000224D030E30224FDF618D0D0D9EC7904FB
:1001E8007833E613F618D9FADADBD002D001D0005A
:1001F800D0D0D0E022C0E0C0D0E5302534F530E5DD
:10020800313535F531E5323536F532E5333537F503
:1002180033D0D0D0E022C0E0C0D0C3E5309534F56B
:1002280030E5319535F531E5329536F532E53395DA
:1002380037F533D0D0D0E022C0E0C0D0C3E5309548
:1002480034E5319535E5329536E53395379200D06A
:10025800D0D0E022C0E0C0D0C3E5349530E5359574
:1002680031E5369532E53795339200D0D0D0E0228B
:10027800C0E0C0D0C200C3E53495307014E53595B0
:1002880031700EE53695327008E53795337002D235
:1002980000D0D0D0E02212027820000302025C22B3
:1002A80012027820000302024022C0E0C0F0C0D051
:1002B800C000C001C002C003E5308534F0A4F8A92D
:1002C800F0E5318534F0A429F9E435F0FAE5308514
:1002D80035F0A429F9E5F03AFAE433FBE532853440
:1002E800F0A42AFAE5F03BFBE5318535F0A42AFABB
:1002F800E5F03BFBE5308536F0A42AFAE5F03BFB58
:10030800E5338534F0A42BFBE5328535F0A42BFBCF
:10031800E5318536F0A42BFBE5308537F0A42BFBBF
:100328008B338A3289318830D003D002D001D00093
:10033800D0D0D0F0D0E022C0E0C0D0C000C001C012
:1003480002C003C0047C20E4F8F9FAFBC3E53033AB
:10035800F530E53133F531E53233F532E53333F550
:1003680033E833F8E933F9EA33FAEB33FBC3E895BA
:1003780034E99535EA9536EB95374013E89534F826
:10038800E99535F9EA9536FAEB9537FB433001DC08
:10039800BBD004D003D002D001D000D0D0D0E0220E
:1003A800C28C758CE3758A2FD28C201804C2B08059
:1003B80004B2B080003275C80075CDD775CC7943CA
:1003C800C9A075CBD775CA79E4F564F565439B80F8
:1003D800D2CA22C2CFC0E0C0D085306085316185E5
:1003E80032628533630566C3E56795669284200E9D
:1003F8000D0568E568B40F06C213756800E4200FA0
:100408000D0569E569B40F06C214756900E420108A
:100418000D056AE56AB40F06C215756A00E4201175
:100428000D056BE56BB40F06C216756B00E4201260
:100438000D056CE56CB40F06C217756C00E4E56633
:10044800B4641F756600E53FB4000302046A0571D1
:100458000572E4E53FB4010AE571B43C05D2010236
:10046800046AE53FB40010E4757200756700300750
:100478004C753F01020558200D46E53FB401227531
:10048800720075676420010FD20C300830E4753FA4
:10049800027572000204A9D20B300327C2010204BC
:1004A800C5200D1CE53FB4021D756714200414E433
:1004B800E572C3956E4006753F0375720002054DDF
:1004C800020528020522200D57E53FB4031375677E
:1004D800647572002004433009E3E4757200753FC7
:1004E80004200D3CE53FB4041375671420042BE485
:1004F800E572957040C7753F05757200200D21E5BE
:100508003FB405B975670075720020040D300AAD57
:10051800753F00757200D218800C7400F53F800694
:100528007400F53F801FC3A207E492E0F4A2E092B2
:1005380007E4C3A20D92E0F4A2E0920DC201757126
:1005480000C2188000020558E55FB400030206E700
:10055800E55FB4016130055BC0E074011412011D50
:10056800D0E0C083C082C0E0900044120110D0E007
:10057800D082D083C20575300075310075320075A0
:100588003300856D30120138C0E074011412011B6C
:10059800D0E0C000A839120122D000C000A838124B
:1005A8000122D000753000753100753200753300B6
:1005B8000206E70206E7E55FB4025E3005F5C0E033
:1005C80074011412011DD0E0C083C082C0E0900005
:1005D80053120110D0E0D082D083C2057530007567
:1005E8003100753200753300856E30120138C0E075
:1005F80074011412011BD0E0C000A839120122D0E6
:1006080000C000A838120122D000753000753100F2
:100618007532007533000206E7E55FB4035E300506
:1006280092C0E074011412011DD0E0C083C082C0E2
:10063800E0900062120110D0E0D082D083C205752C
:100648003000753100753200753300856F30120146
:1006580038C0E074011412011BD0E0C000A83912A0
:100668000122D000C000A838120122D00075300045
:100678007531007532007533000206E7E55FB40492
:100688005E30055BC0E074011412011DD0E0C08328
:10069800C082C0E0900070120110D0E0D082D083F8
:1006A800C2057530007531007532007533008570EC
:1006B80030120138C0E074011412011BD0E0C000F0
:1006C800A839120122D000C000A838120122D00097
:1006D8007530007531007532007533000206E7D0B9
:1006E800D0D0E085603085613185623285633332F0
:1006F80075AC0075AD0075B30075B40075B10075C3
:10070800B2001203BE438E1043878075985253C4BB
:10071800DF53890F438920758DF7D28EC28C438EA3
:10072800085389F0438901758CE3758A2FD2A9D2C1
:100738008C43B38253B47D53E8F043E80775F60061
:1007480043F68143E10122C28CC28D758CE3758A20
:100758002FD28C308DFD2212074FDAFB22D20ED217
:100768000FD210D211D212D295C293C280C281C2C6
:1007780082C283D293D280D281D282D283C283A210
:10078800959212D283C282A2959211D282C281A27C
:10079800959210D281C280A295920FD280C293A264
:1007A80095920ED293D293D29422C0E07408141278
:1007B800011BD0E0C000A83A120122D000C000A856
:1007C80039120122D000C0E0742E1200D3D0E0C04C
:1007D80000A838120122D000C0E074DF1200D3D084
:1007E800E0C0E074431200D3D0E0C0E074081412F3
:1007F800011BD0E0C0E074201200D3D0E0C0E07448
:100808000F1412011DD0E0C000A83F120122D00031
:1008180022C2EFD2EE30EFFDE5C2540FF8E5C3C4B3
:10082800C0E0540FF9D0E054F048F822E53A540FEC
:100838002430120873E53954F0C42430120873E5E3
:1008480039540F2430120873742E120873E5385483
:10085800F0C42430120873E538540F24301208739A
:10086800740A120873740D12087322C299F599302C
:1008780099FD2230130A30142230153130165422D3
:10088800D213C3A207E492E0F4A2E09207E4C3A261
:100898000D92E0F4A2E0920D020905D205D214E50A
:1008A8005F2401B405027401F55F020905D205D27F
:1008B80015E55FB40105056D020905B40205056E6D
:1008C800020905B40305056F020905B4042F057074
:1008D800020905D205D216E55FB40106D56D1E02E0
:1008E8000905B40206D56E15020905B40306D56FCD
:1008F8000C020905B40406D57003020905227581A6
:100908007F1206F81200DD1203BED2AFC28475460C
:1009180001754700754A02754896754900753F008C
:10092800C207C201D20D756D64756E37756FD275C9
:100938007028755F01754B00754C00754D00754E3C
:1009480000C208C209C20BC20CC203C204D2057598
:100958007100757200756600756700D213D214D2E3
:1009680015D216D217C21812076512087B53E8F081
:1009780043E800120819883D893E53E8F043E80728
:10098800120819883089317532007533007534FFC3
:1009980075359F7536007537001202B2853D34856E
:1009A8003E3575360075370012033F854034854162
:1009B800358542368543371201FD85304085314102
:1009C80085324285334353E8F043E8041208198816
:1009D8003089317532007533007534FF75359F7570
:1009E80036007537001202B2853D34853E357536BE
:1009F8000075370012033F7534A375352575360029
:100A08007537001202B275341075352775360075C2
:100A1800370012033F854F3485503585513685524E
:100A2800371201FD85304F8531508532518533525B
:100A3800AA4A12075F1546E546B4FF021547E54680
:100A480045476003020BB3753400753500753600F1
:100A5800753700854030854131854232854333E51D
:100A680048F534F546E549F535F54712033F753441
:100A7800A475356A75360075370012021E85305721
:100A880085315885325985335A7534007535007566
:100A98003600753700854F30855031855132855283
:100AA80033E548F534E549F53512033F75340075EB
:100AB80035007536007537008557348558358559A2
:100AC80036855A371201FD85305B85315C85325D8C
:100AD80085335EC200753464753500753600753728
:100AE80000856D307531007532007533001202B221
:100AF800855B34855C35855D36855E371202A8A234
:100B0800009208C200753464753500753600753773
:100B180000856F307531007532007533001202B2EE
:100B2800855B34855C35855D36855E371202A8A203
:100B3800009209855B30855C31855D32855E33C204
:100B4800007534A875356175360075370012029E38
:100B5800A2009204C2007534887535137536007585
:100B6800370012029EA2009203C2007534B8753590
:100B78000B7536007537001202A8A200920A1201FE
:100B8800381208341207B2754000754100754200EA
:100B9800754300754F00755000755100755200750A
:100BA8005700755801755902755A0375300075312B
:0A0BB8000075320075330002096F6A
:00000001FF
