:03000000020937BB
:10002B000203C543757272656E742054656D702E34
:10003B003A004465672E20430054656D7020536F62
:10004B00616B3A202020200054696D6520536F614D
:10005B006B3A202020200054656D70205265666C31
:10006B006F773A200054696D65205265666C6F7727
:09007B003A20002043002073002C
:10008400C000788500D8FDD00022C000C0017928C6
:100094007868D8FED9FADAF6D001D00022D29412C8
:1000A4000084C29422A2E79283A2E69282A2E592FD
:1000B40081A2E492801200A1120084A2E39283A29E
:1000C400E29282A2E19281A2E092801200A122D265
:1000D400930200A9C2930200A9C294C0027A281212
:1000E400008ED00274331200D874331200D87432E4
:1000F4001200D874281200D8740C1200D87401129B
:1001040000D8C0027A0212008ED00222E493600664
:100114001200D3A380F622444044800200D8C0E0F9
:10012400E8C4540F44301200D3E8540F4430120092
:04013400D3D0E02222
:10013800C0E0C0D0C000C001C002E4F538F539F510
:100148003AF53BF53C7A20E533A2E779047830E6C6
:1001580033F608D9FA79057838E636D4F608D9F9A5
:10016800DAE5D002D001D000D0D0D0E022C0E0C083
:10017800D0C000C001C002E4F538F539F53AF53BC6
:10018800F53C7A20E533A2E779047830E633F608BF
:10019800D9FA79057838C0D0E6243320E70224D08C
:1001A80020E30224FDD0D033F608D9EADAD6D0020B
:1001B800D001D000D0D0D0E022C0E0C0D0C000C074
:1001C80001C0027A207905C3783CE613C0D030E735
:1001D8000224D030E30224FDF618D0D0D9EC7904FB
:1001E8007833E613F618D9FADADBD002D001D0005A
:1001F800D0D0D0E022C0E0C0D0E5302534F530E5DD
:10020800313535F531E5323536F532E5333537F503
:1002180033D0D0D0E022C0E0C0D0C3E5309534F56B
:1002280030E5319535F531E5329536F532E53395DA
:1002380037F533D0D0D0E022C0E0C0D0C3E5309548
:1002480034E5319535E5329536E53395379200D06A
:10025800D0D0E022C0E0C0D0C3E5349530E5359574
:1002680031E5369532E53795339200D0D0D0E0228B
:10027800C0E0C0D0C200C3E53495307014E53595B0
:1002880031700EE53695327008E53795337002D235
:1002980000D0D0D0E02212027820000302025C22B3
:1002A80012027820000302024022C0E0C0F0C0D051
:1002B800C000C001C002C003E5308534F0A4F8A92D
:1002C800F0E5318534F0A429F9E435F0FAE5308514
:1002D80035F0A429F9E5F03AFAE433FBE532853440
:1002E800F0A42AFAE5F03BFBE5318535F0A42AFABB
:1002F800E5F03BFBE5308536F0A42AFAE5F03BFB58
:10030800E5338534F0A42BFBE5328535F0A42BFBCF
:10031800E5318536F0A42BFBE5308537F0A42BFBBF
:100328008B338A3289318830D003D002D001D00093
:10033800D0D0D0F0D0E022C0E0C0D0C000C001C012
:1003480002C003C0047C20E4F8F9FAFBC3E53033AB
:10035800F530E53133F531E53233F532E53333F550
:1003680033E833F8E933F9EA33FAEB33FBC3E895BA
:1003780034E99535EA9536EB95374013E89534F826
:10038800E99535F9EA9536FAEB9537FB433001DC08
:10039800BBD004D003D002D001D000D0D0D0E0220E
:1003A80075C80075CDD775CC7943C9A075CBD775FD
:1003B800CA79E4F564F565439B80D2CA22C2CFC0EE
:1003C800E0C0D08530608531618532628533630550
:1003D80066C3E5679566B39284200D0D0568E568E8
:1003E800B40F06C212756800E4200E0D0569E569B0
:1003F800B40F06C213756900E4200F0D056AE56A9B
:10040800B40F06C214756A00E420100D056BE56B85
:10041800B40F06C215756B00E420110D056CE56C70
:10042800B40F06C216756C00E4E566B4641275660E
:100438000005710572E4E571B43C05D20102044877
:10044800E53FB4005FE475720075670030075575C5
:100458003F0102052D200C4FE53FB4012B75676461
:1004680075720020010D30083BE4753F027572007B
:10047800020490A203E492E0A201C20175F0009286
:10048800F0C3B5F02202045D200C1CE53FB4021A4B
:1004980075671420047DE4E572C3956E4006753FC8
:1004A8000375720002052202051B200C66E53FB4A5
:1004B80003137567647572002004583009E6E47503
:1004C8007200753F04200C4BE53FB40413756714A4
:1004D800200440E4E572957040CA753F05757200C6
:1004E800200C30E53FB405BC756700757200C3A2E7
:1004F80007E492E0F4A2E09207E4C3A20C92E0F4CD
:10050800A2E0920C20040C300A9A753F0075720024
:100518000204AC7400F53F0204AC02052DE55FB49B
:1005280000030206BCE55FB4016130055BC0E074FE
:10053800011412011DD0E0C083C082C0E0900044C5
:10054800120110D0E0D082D083C205753000753119
:1005580000753200753300856D30120138C0E074C3
:10056800011412011BD0E0C000A839120122D000EA
:10057800C000A838120122D000753000753100750E
:1005880032007533000206BC0206BCE55FB4025EA9
:100598003005F5C0E074011412011DD0E0C083C01D
:1005A80082C0E0900053120110D0E0D082D083C204
:1005B80005753000753100753200753300856E3071
:1005C800120138C0E074011412011BD0E0C000A869
:1005D80039120122D000C000A838120122D00075BB
:1005E80030007531007532007533000206BCE55FD6
:1005F800B4035E300592C0E074011412011DD0E00E
:10060800C083C082C0E0900062120110D0E0D082A6
:10061800D083C2057530007531007532007533001E
:10062800856F30120138C0E074011412011BD0E04C
:10063800C000A839120122D000C000A83812012237
:10064800D000753000753100753200753300020630
:10065800BCE55FB4045E30055BC0E07401141201B0
:100668001DD0E0C083C082C0E0900070120110D09D
:10067800E0D082D083C20575300075310075320034
:10068800753300857030120138C0E074011412010E
:100698001BD0E0C000A839120122D000C000A83841
:1006A800120122D0007530007531007532007533A3
:1006B800000206BCD0D0D0E085603085613185620B
:1006C800328563333275AC0075AD0075B30075B40F
:1006D8000075B10075B2001203A8438E10438780DD
:1006E80075985253C4DF53890F438920758DF7D20B
:1006F8008EC28C438E085389F043890143B38253D9
:10070800B47D53E8F043E80775F60043F68143E10A
:100718000122C28CC28D758CFB758A33D28C308DC8
:10072800FD2212071ADAFB22D20DD20ED20FD210F6
:10073800D211D295C293C280C281C282C283D2939F
:10074800D280D281D282D283C283A2959211D283DF
:10075800C282A2959210D282C281A295920FD281B2
:10076800C280A295920ED280C293A295920DD29386
:10077800D293D29422C0E074011412011BD0E0C0BD
:1007880000A83A120122D000C000A839120122D0D4
:1007980000C0E0742E1200D3D0E0C000A8381201C7
:1007A80022D000C0E074DF1200D3D0E0C0E0744370
:1007B8001200D3D0E0C0E074011412011BD0E0C0D5
:1007C800E074201200D3D0E022C2EFD2EE30EFFD69
:1007D800E5C2540FF8E5C3C4C0E0540FF9D0E054A3
:1007E800F048F822E53A540F24301208A4E53954A9
:1007F800F0C424301208A4E539540F24301208A498
:10080800742E1208A4E53854F0C424301208A4E564
:1008180038540F24301208A474201208A47400A2BB
:100828000892E024301208A474201208A4E53F249A
:10083800301208A474201208A47400A20B92E024B9
:10084800301208A474201208A4E57224301208A4F7
:1008580074201208A4E57124301208A47420120828
:10086800A47400A28492E024301208A47420120810
:10087800A474201208A47400A20C92E02430120878
:10088800A474201208A47400A20792E0243012086D
:10089800A4740A1208A4740D1208A422C299F59926
:1008A8003099FD2230120A30132230143130155499
:1008B80022D212C3A207E492E0F4A2E09207E4C3B2
:1008C800A20C92E0F4A2E0920C020936D205D213EF
:1008D800E55F2401B405027401F55F020936D2050B
:1008E800D214E55FB40105056D020936B4020505A9
:1008F8006E020936B40305056F020936B4042F05E4
:1009080070020936D205D215E55FB40106D56D1E11
:10091800020936B40206D56E15020936B40306D5A7
:100928006F0C020936B40406D57003020936227525
:10093800817F1206CD1200DD1203A8D2AF754601E1
:10094800754700754A0175482C754901753F00C205
:1009580007C201D20C756D1C756E05756F1E75701A
:1009680005755F01754B00754C00754D00754E009F
:10097800C208C209C20BC203C204757100757200B5
:10098800756600756700D2B0D212D213D214D21590
:10099800D2161207301208AC53E8F043E8001207E9
:1009A800D1883D893E53E8F043E8071207D18830E3
:1009B80089317532007533007534FF75359F75368A
:1009C800007537001202B2853D34853E3575360014
:1009D80075370012033F8540348541358542368599
:1009E80043371201FD8530408531418532428533D8
:1009F8004353E8F043E8041207D18830893175324F
:100A0800007533007534FF75359F753600753700EE
:100A18001202B2853D34853E3575360075370012B1
:100A2800033F854F3485503585513685523712013D
:100A3800FD85304F853150853251853352AA4A128F
:100A4800072A1546E546B4FF021547E546454760BF
:100A580003020BBD75340075350075360075370017
:100A6800854030854131854232854333E548F53448
:100A7800F546E549F535F54712033F7534A4753554
:100A88006A75360075370012021E85305785315851
:100A980085325985335A75340075350075360075B9
:100AA8003700854F30855031855132855233E548BE
:100AB800F534E549F53512033F7534007535007591
:100AC8003600753700855734855835855936855A27
:100AD800371201FD85305B85315C85325D85335E7B
:100AE800C200753464753500753600753700856D3C
:100AF800307531007532007533001202B2855B34EF
:100B0800855C35855D36855E371202A8A20092089D
:100B1800C200753464753500753600753700856F09
:100B2800307531007532007533001202B2855B34BE
:100B3800855C35855D36855E371202A8A20092096C
:100B4800855B30855C31855D32855E33C2007534E6
:100B5800A875356175360075370012029EA200929D
:100B680004C2007534887535137536007537001260
:100B7800029EA2009203C2007534B875350B753613
:100B8800007537001202A8A200920A120138120753
:100B9800EC754000754100754200754300754F00C3
:100BA80075500075510075520075570075580175DC
:100BB8005902755A03753000753100753200753366
:040BC8000002099A84
:00000001FF
