:030000000206C72E
:10002B0002038543757272656E742054656D702E74
:09003B003A004465672E204300E1
:10004400C000788500D8FDD00022C000C001792806
:100054007868D8FED9FADAF6D001D00022D2941208
:100064000044C29422A2E79283A2E69282A2E5927D
:1000740081A2E49280120061120044A2E39283A25E
:10008400E29282A2E19281A2E0928012006122D2E5
:1000940093020069C293020069C294C0027A2812D2
:1000A400004ED002743312009874331200987432E4
:1000B4001200987428120098740C1200987401129B
:1000C4000098C0027A0212004ED00222E493600625
:1000D400120093A380F62244404480020098C0E0BA
:1000E400E8C4540F4430120093E8540F4430120013
:0400F40093D0E022A3
:1000F800C0E0C0D0C000C001C002E4F538F539F551
:100108003AF53BF53C7A20E533A2E779047830E606
:1001180033F608D9FA79057838E636D4F608D9F9E5
:10012800DAE5D002D001D000D0D0D0E022C0E0C0C3
:10013800D0C000C001C002E4F538F539F53AF53B06
:10014800F53C7A20E533A2E779047830E633F608FF
:10015800D9FA79057838C0D0E6243320E70224D0CC
:1001680020E30224FDD0D033F608D9EADAD6D0024B
:10017800D001D000D0D0D0E022C0E0C0D0C000C0B4
:1001880001C0027A207905C3783CE613C0D030E775
:100198000224D030E30224FDF618D0D0D9EC79043B
:1001A8007833E613F618D9FADADBD002D001D0009A
:1001B800D0D0D0E022C0E0C0D0E5302534F530E51D
:1001C800313535F531E5323536F532E5333537F544
:1001D80033D0D0D0E022C0E0C0D0C3E5309534F5AC
:1001E80030E5319535F531E5329536F532E533951B
:1001F80037F533D0D0D0E022C0E0C0D0C3E5309589
:1002080034E5319535E5329536E53395379200D0AA
:10021800D0D0E022C0E0C0D0C3E5349530E53595B4
:1002280031E5369532E53795339200D0D0D0E022CB
:10023800C0E0C0D0C200C3E53495307014E53595F0
:1002480031700EE53695327008E53795337002D275
:1002580000D0D0D0E02212023820000302021C2273
:1002680012023820000302020022C0E0C0F0C0D011
:10027800C000C001C002C003E5308534F0A4F8A96D
:10028800F0E5318534F0A429F9E435F0FAE5308554
:1002980035F0A429F9E5F03AFAE433FBE532853480
:1002A800F0A42AFAE5F03BFBE5318535F0A42AFAFB
:1002B800E5F03BFBE5308536F0A42AFAE5F03BFB98
:1002C800E5338534F0A42BFBE5328535F0A42BFB10
:1002D800E5318536F0A42BFBE5308537F0A42BFB00
:1002E8008B338A3289318830D003D002D001D000D4
:1002F800D0D0D0F0D0E022C0E0C0D0C000C001C053
:1003080002C003C0047C20E4F8F9FAFBC3E53033EB
:10031800F530E53133F531E53233F532E53333F590
:1003280033E833F8E933F9EA33FAEB33FBC3E895FA
:1003380034E99535EA9536EB95374013E89534F866
:10034800E99535F9EA9536FAEB9537FB433001DC48
:10035800BBD004D003D002D001D000D0D0D0E0224E
:1003680075C80075CDD775CC7943C9A075CBD7753D
:10037800CA79E4F560F561439B80D2CA22C2CFC036
:10038800E0C0D00562C3E5639562B39284E562B4C8
:10039800641275620005680569E4E568B43C05D235
:1003A800010203ACE53FB40010E475690075630011
:1003B800300552753F01020467200AE8E53FB401A1
:1003C8002875636475690030063BE4753F027569FA
:1003D800000203F1A203E492E0A201C20175F00059
:1003E80092F0C3B5F0750203C1200AB8E53FB40224
:1003F80017756314200464E4E569C3956540607566
:100408003F03756900020467200A99E53FB40313A6
:10041800756364756900200442300743E475690018
:10042800753F04200A35E53FB404137563142004AE
:100438002AE4E56995674027753F05756900200A34
:100448001AE53FB4051975630075690020040C307E
:10045800080D753F007569000204677400F53FD008
:10046800D0D0E03275AC0075AD0075B30075B4003E
:1004780075B10075B200120368438E10438780750A
:10048800985253C4DF53890F438920758DF7D28E54
:10049800C28C438E085389F043890143B38253B415
:1004A8007D53E8F043E80775F60043F68143E10120
:1004B80022C28CC28D758CFB758A33D28C308DFD2F
:1004C800221204B9DAFB22D20BD20CD20DD20ED2F0
:1004D8000FD295C293C280C281C282C28320953A4C
:1004E8007A321204C9209532D293D280D281D28234
:1004F800D283C283A295920FD283C282A295920E12
:10050800D282C281A295920DD281C280A295920C0C
:10051800D280C293A295920BD29322C0E0740114A8
:100528001200DBD0E0C000A83A1200E2D000C00000
:10053800A8391200E2D000C0E0742E120093D0E077
:10054800C000A8381200E2D000C0E074DF120093A7
:10055800D0E0C0E07443120093D0E0C0E07401140E
:100568001200DBD0E0C0E07420120093D0E022C279
:10057800EFD2EE30EFFDE5C2540FF8E5C3C4C0E09A
:10058800540FF9D0E054F048F822E53A540F2430DB
:10059800120645E53954F0C42430120645E53954AD
:1005A8000F2430120645742E120645E53854F0C45F
:1005B8002430120645E538540F24301206457420BD
:1005C8001206457400A20692E024301206457420F3
:1005D800120645E53F24301206457420120645747C
:1005E80000A20992E024301206457420120645E55F
:1005F8006924301206457420120645E56824301235
:100608000645742012064574201206457400A20A95
:1006180092E0243012064574201206457400A205A3
:1006280092E024301206457400A28492E02430122D
:100638000645740A120645740D12064522C299F53C
:10064800993099FDC299300B0A300C1C300D2730B7
:100658000E4622C3A205E492E0F4F505E4C3A20A1B
:1006680092E0F4F50A0206C6E55F2401B4050274B7
:1006780001F55F0206C6E55FB4010505640206C61A
:10068800B4020505650206C6B4030505660206C67A
:10069800B4042B05670206C6E55FB40106D5641EDF
:1006A8000206C6B40206D565150206C6B40306D509
:1006B800660C0206C6B40406D567030206C6227590
:1006C800817F12046C12009D120368D2AF75460137
:1006D800754700754A0175482C754901753F00C278
:1006E80005C201D20A75641C75650575661E7567B5
:1006F80005755F01754B00754C00754D00754E0012
:10070800C206C207C209C203C2047568007569003F
:10071800756200756300C0E07401141200DDD0E05A
:10072800C083C082C0E090002E1200D0D0E0D082FA
:10073800D08353E8F043E800120577883D893E539B
:10074800E8F043E80712057788308931753200757B
:1007580033007534FF75359F753600753700120202
:1007680072853D34853E357536007537001202FFB7
:100778008540348541358542368543371201BD852C
:10078800304085314185324285334353E8F043E8B0
:100798000412057788308931753200753300753455
:1007A800FF75359F753600753700120272853D3426
:1007B800853E357536007537001202FF854F348542
:1007C80050358551368552371201BD85304F8531F8
:1007D80050853251853352AA4A1204C91546E54656
:1007E800B4FF021547E5464547600302095A7534C8
:1007F8000075350075360075370085403085413104
:10080800854232854333E548F534F546E549F53503
:10081800F5471202FF7534A475356A7536007537C9
:10082800001201DE85305785315885325985335A93
:10083800753400753500753600753700854F30857D
:100848005031855132855233E548F534E549F5355F
:100858001202FF753400753500753600753700854E
:100868005734855835855936855A371201BD853034
:100878005B85315C85325D85335EC2007534647595
:10088800350075360075370085643075310075326E
:1008980000753300120272855B34855C35855D36E0
:1008A800855E37120268A2009206C200753464752C
:1008B800350075360075370085663075310075323C
:1008C80000753300120272855B34855C35855D36B0
:1008D800855E37120268A2009207855B30855C311D
:1008E800855D32855E33C2007534A875356175360D
:1008F8000075370012025EA2009204C200753488A7
:1009080075351375360075370012025EA200920322
:10091800C2007534B875350B75360075370012028C
:1009280068A20092081200F8120523120592754079
:1009380000754100754200754300754F0075500001
:100948007551007552007557007558017559027533
:100958005A031204CF7530007531007532007533B3
:040968000002073A48
:00000001FF
