:030000000208F003
:10002B000203C543757272656E742054656D702E34
:10003B003A004465672E20430054656D7020536F62
:10004B00616B3A202020200054696D6520536F614D
:10005B006B3A202020200054656D70205265666C31
:10006B006F773A200054696D65205265666C6F7727
:09007B003A20002043002073002C
:10008400C000788500D8FDD00022C000C0017928C6
:100094007868D8FED9FADAF6D001D00022D29412C8
:1000A4000084C29422A2E79283A2E69282A2E592FD
:1000B40081A2E492801200A1120084A2E39283A29E
:1000C400E29282A2E19281A2E092801200A122D265
:1000D400930200A9C2930200A9C294C0027A281212
:1000E400008ED00274331200D874331200D87432E4
:1000F4001200D874281200D8740C1200D87401129B
:1001040000D8C0027A0212008ED00222E493600664
:100114001200D3A380F622444044800200D8C0E0F9
:10012400E8C4540F44301200D3E8540F4430120092
:04013400D3D0E02222
:10013800C0E0C0D0C000C001C002E4F538F539F510
:100148003AF53BF53C7A20E533A2E779047830E6C6
:1001580033F608D9FA79057838E636D4F608D9F9A5
:10016800DAE5D002D001D000D0D0D0E022C0E0C083
:10017800D0C000C001C002E4F538F539F53AF53BC6
:10018800F53C7A20E533A2E779047830E633F608BF
:10019800D9FA79057838C0D0E6243320E70224D08C
:1001A80020E30224FDD0D033F608D9EADAD6D0020B
:1001B800D001D000D0D0D0E022C0E0C0D0C000C074
:1001C80001C0027A207905C3783CE613C0D030E735
:1001D8000224D030E30224FDF618D0D0D9EC7904FB
:1001E8007833E613F618D9FADADBD002D001D0005A
:1001F800D0D0D0E022C0E0C0D0E5302534F530E5DD
:10020800313535F531E5323536F532E5333537F503
:1002180033D0D0D0E022C0E0C0D0C3E5309534F56B
:1002280030E5319535F531E5329536F532E53395DA
:1002380037F533D0D0D0E022C0E0C0D0C3E5309548
:1002480034E5319535E5329536E53395379200D06A
:10025800D0D0E022C0E0C0D0C3E5349530E5359574
:1002680031E5369532E53795339200D0D0D0E0228B
:10027800C0E0C0D0C200C3E53495307014E53595B0
:1002880031700EE53695327008E53795337002D235
:1002980000D0D0D0E02212027820000302025C22B3
:1002A80012027820000302024022C0E0C0F0C0D051
:1002B800C000C001C002C003E5308534F0A4F8A92D
:1002C800F0E5318534F0A429F9E435F0FAE5308514
:1002D80035F0A429F9E5F03AFAE433FBE532853440
:1002E800F0A42AFAE5F03BFBE5318535F0A42AFABB
:1002F800E5F03BFBE5308536F0A42AFAE5F03BFB58
:10030800E5338534F0A42BFBE5328535F0A42BFBCF
:10031800E5318536F0A42BFBE5308537F0A42BFBBF
:100328008B338A3289318830D003D002D001D00093
:10033800D0D0D0F0D0E022C0E0C0D0C000C001C012
:1003480002C003C0047C20E4F8F9FAFBC3E53033AB
:10035800F530E53133F531E53233F532E53333F550
:1003680033E833F8E933F9EA33FAEB33FBC3E895BA
:1003780034E99535EA9536EB95374013E89534F826
:10038800E99535F9EA9536FAEB9537FB433001DC08
:10039800BBD004D003D002D001D000D0D0D0E0220E
:1003A80075C80075CDD775CC7943C9A075CBD775FD
:1003B800CA79E4F564F565439B80D2CA22C2CFC0EE
:1003C800E0C0D08530608531618532628533630550
:1003D80066C3E5679566B39284E566B4641275668C
:1003E80000056C056DE4E56CB43C05D2010203F828
:1003F800E53FB4005FE4756D00756700300755751B
:100408003F010204DD200C4FE53FB4012B75676402
:10041800756D0020010D30083BE4753F02756D00D5
:10042800020440A203E492E0A201C20175F0009226
:10043800F0C3B5F02202040D200C1CE53FB4021AEB
:1004480075671420047DE4E56DC395694006753F22
:1004580003756D000204D20204CB200C66E53FB49C
:100468000313756764756D002004583009E6E47558
:100478006D00753F04200C4BE53FB40413756714F9
:10048800200440E4E56D956B40CA753F05756D0025
:10049800200C30E53FB405BC756700756D00C3A23C
:1004A80007E492E0F4A2E09207E4C3A20C92E0F41D
:1004B800A2E0920C20040C300A9A753F00756D007A
:1004C80002045C7400F53F02045C0204DDE55FB4DD
:1004D800000302066CE55FB4016130055BC0E0749F
:1004E800011412011DD0E0C083C082C0E090004416
:1004F800120110D0E0D082D083C20575300075316A
:1005080000753200753300856830120138C0E07418
:10051800011412011BD0E0C000A839120122D0003A
:10052800C000A838120122D000753000753100755E
:10053800320075330002066C02066CE55FB4025E99
:100548003005F5C0E074011412011DD0E0C083C06D
:1005580082C0E0900053120110D0E0D082D083C254
:1005680005753000753100753200753300856930C6
:10057800120138C0E074011412011BD0E0C000A8B9
:1005880039120122D000C000A838120122D000750B
:10059800300075310075320075330002066CE55F76
:1005A800B4035E300592C0E074011412011DD0E05E
:1005B800C083C082C0E0900062120110D0E0D082F7
:1005C800D083C2057530007531007532007533006F
:1005D800856A30120138C0E074011412011BD0E0A2
:1005E800C000A839120122D000C000A83812012288
:1005F800D000753000753100753200753300020681
:100608006CE55FB4045E30055BC0E0740114120150
:100618001DD0E0C083C082C0E0900070120110D0ED
:10062800E0D082D083C20575300075310075320084
:10063800753300856B30120138C0E0740114120163
:100648001BD0E0C000A839120122D000C000A83891
:10065800120122D0007530007531007532007533F3
:100668000002066CD0D0D0E08560308561318562AB
:10067800328563333275AC0075AD0075B30075B45F
:100688000075B10075B2001203A8438E104387802D
:1006980075985253C4DF53890F438920758DF7D25B
:1006A8008EC28C438E085389F043890143B3825329
:1006B800B47D53E8F043E80775F60043F68143E15B
:1006C8000122C28CC28D758CFB758A33D28C308D19
:1006D800FD221206CADAFB22D20DD20ED20FD21098
:1006E800D211D295C293C280C281C282C2832095A0
:1006F8003A7A0A1206DA209532D293D280D281D27F
:1007080082D283C283A2959211D283C282A2959289
:1007180010D282C281A295920FD281C280A29592F4
:100728000ED280C293A295920DD29322C0E074019A
:100738001412011BD0E0C000A83A120122D000C058
:1007480000A839120122D000C0E0742E1200D3D0C4
:10075800E0C000A838120122D000C0E074DF120007
:10076800D3D0E0C0E074431200D3D0E0C0E07401FD
:100778001412011BD0E0C0E074201200D3D0E02294
:10078800C2EFD2EE30EFFDE5C2540FF8E5C3C4C0A6
:10079800E0540FF9D0E054F048F822E53A540F2419
:1007A8003012085BE53954F0C4243012085BE5398F
:1007B800540F243012085B742E12085BE53854F08D
:1007C800C4243012085BE538540F243012085B74D7
:1007D8002012085B7400A20892E0243012085B74AF
:1007E8002012085BE53F243012085B742012085B76
:1007F8007400A20B92E0243012085B742012085B8C
:10080800E56D243012085B742012085BE56C243017
:1008180012085B742012085B7400A28492E02430F2
:1008280012085B742012085B742012085B7400A223
:100838000C92E0243012085B742012085B7400A24A
:100848000792E0243012085B740A12085B740D12D8
:10085800085B22C299F5993099FD22300D16300EA9
:100868002C300F0430105A2230060302087BD206BF
:100878001208A522C3A207E492E0F4A2E09207E4DA
:10088800C3A20C92E0F4A2E0920C0208EFD205E5B4
:100898005F2401B405027401F55F0208EFD205E593
:1008A8005FB4010505680208EFB40205056902088E
:1008B800EFB40305056A0208EFB4042B056B0208C0
:1008C800EFD205B40106D5681E0208EFB40206D5BA
:1008D80069150208EFB40306D56A0C0208EFB404E0
:1008E80006D56B030208EF2275817F12067D120080
:1008F800DD1203A8D2AF754601754700754A017528
:10090800482C754901753F00C207C201D20C7568B1
:100918001C756905756A1E756B05755F01754B0059
:10092800754C00754D00754E00C208C209C20BC255
:1009380003C204756C00756D00756600756700D29A
:10094800B01206E0120863200F03020957C20653CB
:10095800E8F043E800120788883D893E53E8F043F1
:10096800E8071207888830893175320075330075B9
:1009780034FF75359F7536007537001202B2853D14
:1009880034853E3575360075370012033F8540348F
:100998008541358542368543371201FD85304085CE
:1009A800314185324285334353E8F043E804120766
:1009B80088883089317532007533007534FF753594
:1009C8009F7536007537001202B2853D34853E3575
:1009D80075360075370012033F854F3485503585CD
:1009E80051368552371201FD85304F853150853299
:1009F80051853352AA4A1206DA1546E546B4FF0273
:100A08001547E54645476003020B74753400753594
:100A18000075360075370085403085413185423292
:100A2800854333E548F534F546E549F535F547128C
:100A3800033F7534A475356A7536007537001202A0
:100A48001E85305785315885325985335A7534009B
:100A5800753500753600753700854F3085503185FE
:100A68005132855233E548F534E549F53512033FEF
:100A7800753400753500753600753700855734852F
:100A88005835855936855A371201FD85305B8531D1
:100A98005C85325D85335EC20075346475350075DA
:100AA800360075370085683075310075320075334A
:100AB800001202B2855B34855C35855D36855E370C
:100AC8001202A8A2009208C2007534647535007538
:100AD8003600753700856A30753100753200753318
:100AE800001202B2855B34855C35855D36855E37DC
:100AF8001202A8A2009209855B30855C31855D32BF
:100B0800855E33C2007534A8753561753600753752
:100B18000012029EA2009204C20075348875351333
:100B280075360075370012029EA2009203C2007546
:100B380034B875350B7536007537001202A8A20057
:100B4800920A1201381207A37540007541007542D8
:100B580000754300754F00755000755100755200BF
:100B6800755700755801755902755A037530007527
:0B0B780031007532007533000209499E
:00000001FF
