:1000000002040C43757272656E742054656D702E17
:090010003A004465672E2043000C
:10001900C000788500D8FDD00022C000C001792831
:100029007868D8FED9FADAF6D001D00022D2941233
:100039000019C29422A2E79283A2E69282A2E592D3
:1000490081A2E49280120036120019A2E39283A2DF
:10005900E29282A2E19281A2E0928012003622D23B
:100069009302003EC29302003EC294C0027A281253
:100079000023D002743312006D743312006D743290
:1000890012006D742812006D740C12006D74011247
:10009900006DC0027A02120023D00222E4936006A6
:1000A900120068A380F6224440448002006DC0E03B
:1000B900E8C4540F4430120068E8540F4430120069
:0400C90068D0E022F9
:1000CD00C0E0C0D0C000C001C002E4F538F539F57C
:1000DD003AF53BF53C7A20E533A2E779047830E632
:1000ED0033F608D9FA79057838E636D4F608D9F911
:1000FD00DAE5D002D001D000D0D0D0E022C0E0C0EF
:10010D00D0C000C001C002E4F538F539F53AF53B31
:10011D00F53C7A20E533A2E779047830E633F6082A
:10012D00D9FA79057838C0D0E6243320E70224D0F7
:10013D0020E30224FDD0D033F608D9EADAD6D00276
:10014D00D001D000D0D0D0E022C0E0C0D0C000C0DF
:10015D0001C0027A207905C3783CE613C0D030E7A0
:10016D000224D030E30224FDF618D0D0D9EC790466
:10017D007833E613F618D9FADADBD002D001D000C5
:10018D00D0D0D0E022C0E0C0D0E5302534F530E548
:10019D00313535F531E5323536F532E5333537F56F
:1001AD0033D0D0D0E022C0E0C0D0C3E5309534F5D7
:1001BD0030E5319535F531E5329536F532E5339546
:1001CD0037F533D0D0D0E022C0E0C0D0C3E53095B4
:1001DD0034E5319535E5329536E53395379200D0D6
:1001ED00D0D0E022C0E0C0D0C3E5349530E53595E0
:1001FD0031E5369532E53795339200D0D0D0E022F7
:10020D00C0E0C0D0C200C3E53495307014E535951B
:10021D0031700EE53695327008E53795337002D2A0
:10022D0000D0D0D0E02212020D2000030201F122F5
:10023D0012020D2000030201D522C0E0C0F0C0D093
:10024D00C000C001C002C003E5308534F0A4F8A998
:10025D00F0E5318534F0A429F9E435F0FAE530857F
:10026D0035F0A429F9E5F03AFAE433FBE5328534AB
:10027D00F0A42AFAE5F03BFBE5318535F0A42AFA26
:10028D00E5F03BFBE5308536F0A42AFAE5F03BFBC3
:10029D00E5338534F0A42BFBE5328535F0A42BFB3B
:1002AD00E5318536F0A42BFBE5308537F0A42BFB2B
:1002BD008B338A3289318830D003D002D001D000FF
:1002CD00D0D0D0F0D0E022C0E0C0D0C000C001C07E
:1002DD0002C003C0047C20E4F8F9FAFBC3E5303317
:1002ED00F530E53133F531E53233F532E53333F5BC
:1002FD0033E833F8E933F9EA33FAEB33FBC3E89526
:10030D0034E99535EA9536EB95374013E89534F891
:10031D00E99535F9EA9536FAEB9537FB433001DC73
:10032D00BBD004D003D002D001D000D0D0D0E02279
:10033D0075AC0075AD0075B30075B40075B1007581
:10034D00B200438E1043878075985253C4DF538992
:10035D000F438920758DF7D28EC28C438E08538939
:10036D00F043890143B38253B47D53E8F043E8076A
:10037D0075F60043F68143E10122C28CC28D758C66
:10038D00FB758A33D28C308DFD22120387DAFB2266
:10039D00C0E07401141200B0D0E0C000A83A120001
:1003AD00B7D000C000A8391200B7D000C0E0742E3D
:1003BD00120068D0E0C000A8381200B7D000C0E02D
:1003CD0074DF120068D0E0C0E07443120068D0E022
:1003DD00C0E07401141200B0D0E0C0E0742012002F
:1003ED0068D0E022C2EFD2EE30EFFDE5C2540FF837
:1003FD00E5C3C4C0E0540FF9D0E054F048F82275BD
:10040D00817F12033D1200727545017546007549D5
:10041D000175472C754801754A00754B00754C00E8
:10042D00754D00C0E07401141200B2D0E0C083C05D
:10043D0082C0E09000031200A5D0E0D082D08302EC
:10044D00048DE53A54F0C42430120485E53A540F76
:10045D002430120485742E120485E53954F0C42419
:10046D0030120485E539540F2430120485740A12B4
:10047D000485740D12048522C299F5993099FD22D7
:10048D0053E8F043E8001203F1883D893E53E8F04C
:10049D0043E8071203F18830893175320075330056
:1004AD007534FF75359F7536007537001202478517
:1004BD003D34853E357536007537001202D4853FC3
:1004CD003485403585413685423712019285303F5E
:1004DD0085314085324185334253E8F043E80412BB
:1004ED0003F1883089317532007533007534FF752D
:1004FD00359F753600753700120247853D34853EB0
:10050D00357536007537001202D4854E34854F355A
:10051D0085503685513712019285304E85314F8584
:10052D003250853351AA491203971545E545B4FF5D
:10053D00021546E545454660030205FA753400751A
:10054D003500753600753700853F30854031854162
:10055D0032854233E547F534F545E548F535F54641
:10056D001202D47534A475356A75360075370012CC
:10057D0001B38530528531538532548533557534E9
:10058D0000753500753600753700854E30854F3155
:10059D00855032855133E547F534F545E548F53558
:1005AD00F5461202D4753400753500753600753771
:1005BD000085523485533585543685553712019251
:1005CD001200CD12039D12044F753F00754000754A
:1005DD004100754200754E00754F00755000755104
:1005ED000075520075530175540275550375300031
:0C05FD0075310075320075330002048D6A
:00000001FF
